:100000000C9432000C944F000C944F000C944F0051
:100010000C944F000C944F000C944F000C9422034E
:100020000C944F000C944F000C944F000C94D00291
:100030000C944F000C944F000C944F000C944F0004
:100040000C944F000C944F000C944F000C944F00F4
:100050000C944F00B202B502B802C402BB02BE0249
:10006000C102CD0211241FBECFE5D8E0DEBFCDBF57
:1000700010E0A0E6B0E0E0E4F7E002C005900D92E9
:10008000AC37B107D9F720E0ACE7B0E001C01D9272
:10009000A938B207E1F70E9472020C949E030C94F7
:1000A000000041E063E082E00E94890041E064E0FA
:1000B00082E00E9489000C945A03882319F0813051
:1000C00041F0089541E063E082E00E94EE0040E0EC
:1000D00006C040E063E082E00E94EE0041E064E0A0
:1000E00082E00C94EE00880F982F990F990F890FDA
:1000F00090E00C945F030E945A030C94690340E063
:1001000063E082E00E94EE0040E064E082E00C9454
:10011000EE00442379F1413009F05FC0813079F07D
:1001200028F08230A9F08330E1F008952AB381E00D
:1001300090E001C0880F6A95EAF7822B2CC027B3A4
:1001400081E090E001C0880F6A95EAF7822B2EC00B
:1001500024B381E090E001C0880F6A95EAF7822B12
:1001600030C021B381E090E001C0880F6A95EAF7C2
:10017000822B32C0813089F028F08230C9F0833080
:1001800011F108952AB381E090E001C0880F6A95CB
:10019000EAF7809582238ABB089527B381E090E037
:1001A00001C0880F6A95EAF78095822387BB08957E
:1001B00024B381E090E001C0880F6A95EAF780954A
:1001C000822384BB089521B381E090E001C0880FB1
:1001D0006A95EAF78095822381BB0895442379F1DB
:1001E000413009F05FC0813079F028F08230A9F009
:1001F0008330E1F008952BB381E090E001C0880FD7
:100200006A95EAF7822B2CC028B381E090E001C008
:10021000880F6A95EAF7822B2EC025B381E090E023
:1002200001C0880F6A95EAF7822B30C022B381E0C3
:1002300090E001C0880F6A95EAF7822B32C08130C6
:1002400089F028F08230C9F0833011F108952BB382
:1002500081E090E001C0880F6A95EAF780958223DB
:100260008BBB089528B381E090E001C0880F6A95A8
:10027000EAF78095822388BB089525B381E090E05A
:1002800001C0880F6A95EAF78095822385BB08959F
:1002900022B381E090E001C0880F6A95EAF780956B
:1002A000822382BB0895CF93C82F40E061E081E0B4
:1002B0000E94EE0040E062E081E00E94EE0040E03B
:1002C00064E081E00E94EE008BB39C2F907F8F70E2
:1002D000892B8BBB41E064E081E00E94EE008FEC53
:1002E00097E00197F1F700C0000040E064E081E092
:1002F0000E94EE002BB330E1C39FC0011124922F66
:100300009F70892B8BBB41E064E081E00E94EE008E
:100310008FEC97E00197F1F700C0000040E064E047
:1003200081E00E94EE008FE097E20197F1F700C0B4
:100330000000CF91089541E061E081E00E948900D2
:1003400041E062E081E00E94890041E064E081E0F8
:100350000E94890041E064E080E00E94890041E061
:1003600065E080E00E94890041E066E080E00E9454
:10037000890041E067E080E00E9489002FEF80E77C
:1003800092E0215080409040E1F700C0000083E3FC
:100390000E94530182E30E94530188E20E945301AC
:1003A0008CE00E94530181E00E94530186E00E948C
:1003B000530182E00C945301CF93C82F41E061E0D8
:1003C00081E00E94EE0040E062E081E00E94EE00E9
:1003D00040E064E081E00E94EE008C2F807F8BBBC8
:1003E00041E064E081E00E94EE008FEC97E001972D
:1003F000F1F700C0000040E064E081E00E94EE0000
:10040000C295C07FCBBB41E064E081E00E94EE007A
:100410008FEC97E00197F1F700C0000040E064E046
:1004200081E00E94EE008FE097E20197F1F700C0B3
:100430000000CF9108950F931F93CF938C01C0E0DC
:10044000F801EC0FF11D8081882321F00E94DC016E
:10045000CF5FF6CFCF911F910F910895CF93DF9388
:1004600000D0CDB7DEB790E8998390EC9A83FE0177
:10047000E80FF11D8181860F0F900F90DF91CF91D2
:100480000C94530181E00C94530141E062E082E05E
:100490000C94890041E061E082E00C94890041E025
:1004A00060E082E00C94890041E062E082E00C941C
:1004B000EE0041E061E082E00C94EE0041E060E09B
:1004C00082E00C94EE0040E062E082E00C94EE00EA
:1004D00040E061E082E00C94EE0040E060E082E009
:1004E0000C94EE000E949B0165E080E00E942E02C9
:1004F00080E690E00E941B0263E081E00E942E02F1
:1005000088E690E00E941B022FEF8DE399E42150D2
:1005100080409040E1F700C000000E94420265E088
:1005200080E00E942E0284E790E00E941B020E945D
:100530006D030E94510080E00E945D000E947F00D8
:100540000E9445020E944A020E944F020E948003BC
:1005500090E0FC01F197E830F105C0F7E65DFF4F50
:100560000C9498030E945402F1CF0E945902EECFDE
:100570000E945E02EBCF0E946302E8CF0E946802F5
:10058000E5CF0E946D02E2CF80E00E945D008AE02C
:100590000E9473000E947B00D9CF0E947F00D6CFBB
:1005A0001F920F920FB60F9211242F933F934F93E8
:1005B0005F936F937F938F939F93AF93BF93EF93CB
:1005C000FF9380917E0090917F00A0918000B09178
:1005D00081000196A11DB11D80937E0090937F0044
:1005E000A0938000B09381004091820050918300DD
:1005F000609184007091850084179507A607B7075E
:1006000081F48091860082BF10927E0010927F005C
:100610001092800010928100E0918700F091880094
:100620000995FF91EF91BF91AF919F918F917F912C
:100630006F915F914F913F912F910F900FBE0F904F
:100640001F9018951F920F920FB60F9211242F939F
:100650003F934F935F936F937F938F939F93AF934A
:10066000BF93EF93FF9380917C0090917D00019662
:100670008130910529F090937D0080937C0009C022
:1006800010927D0010927C00E0918700F09188002C
:100690000995FF91EF91BF91AF919F918F917F91BC
:1006A0006F915F914F913F912F910F900FBE0F90DF
:1006B0001F901895BB9A83B7886683BF089520E082
:1006C000982F822F64E670E00E94840361506CBF13
:1006D000089583B7816083BF089540E060E083E0C0
:1006E0000E94890041E061E083E00E9489008AB1B4
:1006F00088618AB980B5866880BD83E389B9089529
:100700005F9BFECF8CB10895AA1BBB1B51E107C0B4
:10071000AA1FBB1FA617B70710F0A61BB70B881F91
:10072000991F5A95A9F780959095BC01CD01089520
:10073000EE0FFF1F0590F491E02D0994F894FFCF80
:1007400057656C636F6D6500746F206F75722068FC
:0C0750006F6D6500536D696C6520210021
:00000001FF
